{"contracts/ExampleExternalContract.sol":{"ExampleExternalContract":{"abi":[{"anonymous":false,"inputs":[{"indexed":true,"internalType":"address","name":"sender","type":"address"},{"indexed":false,"internalType":"uint256","name":"amount","type":"uint256"}],"name":"Completed","type":"event"},{"inputs":[],"name":"complete","outputs":[],"stateMutability":"payable","type":"function"},{"inputs":[],"name":"completed","outputs":[{"internalType":"bool","name":"","type":"bool"}],"stateMutability":"view","type":"function"},{"inputs":[{"internalType":"address","name":"contractAddress","type":"address"}],"name":"getBalance","outputs":[{"internalType":"uint256","name":"","type":"uint256"}],"stateMutability":"view","type":"function"},{"inputs":[{"internalType":"address payable","name":"user","type":"address"},{"internalType":"uint256","name":"amount","type":"uint256"}],"name":"payReward","outputs":[],"stateMutability":"nonpayable","type":"function"},{"inputs":[],"name":"totalReceived","outputs":[{"internalType":"uint256","name":"","type":"uint256"}],"stateMutability":"view","type":"function"},{"stateMutability":"payable","type":"receive"}],"devdoc":{"kind":"dev","methods":{"complete()":{"details":"接收ETH并标记操作完成"},"getBalance(address)":{"returns":{"_0":"合约的ETH余额"}},"payReward(address,uint256)":{"params":{"amount":"奖励金额","user":"用户地址"}}},"version":1},"evm":{"bytecode":{"linkReferences":{},"object":"608060405234801561001057600080fd5b50610389806100206000396000f3fe60806040526004361061004e5760003560e01c8063522e1177146100c65780638b8afcd7146100d05780639d9a7fe9146100f0578063a3c2c4621461011f578063f8b2cb4f1461014357600080fd5b366100c157344710156100a85760405162461bcd60e51b815260206004820152601f60248201527fe8b4a6e688b7e4bd99e9a29de4b88de8b6b32ce697a0e6b395e694afe4bb980060448201526064015b60405180910390fd5b34600160008282546100ba9190610317565b9091555050005b600080fd5b6100ce61016b565b005b3480156100dc57600080fd5b506100ce6100eb3660046102ec565b6101c6565b3480156100fc57600080fd5b5060005461010a9060ff1681565b60405190151581526020015b60405180910390f35b34801561012b57600080fd5b5061013560015481565b604051908152602001610116565b34801561014f57600080fd5b5061013561015e3660046102c9565b6001600160a01b03163190565b6000805460ff191660019081178255805434929061018a908490610317565b909155505060405134815233907fde2dead40a8c097b51964aec2a068ffa7dc41c6a98ff2c2b4a6e72957c32ac769060200160405180910390a2565b804710156102215760405162461bcd60e51b815260206004820152602260248201527fe5a596e58ab1e6b1a0e4bd99e9a29de4b88de8b6b32ce697a0e6b395e694afe4604482015261177360f31b606482015260840161009f565b6000826001600160a01b03168260405160006040518083038185875af1925050503d806000811461026e576040519150601f19603f3d011682016040523d82523d6000602084013e610273565b606091505b50509050806102c45760405162461bcd60e51b815260206004820152601e60248201527fe5b086e5a596e58ab1e8bdace7a7bbe7bb99e794a8e688b7e5a4b1e8b4a50000604482015260640161009f565b505050565b6000602082840312156102da578081fd5b81356102e58161033b565b9392505050565b600080604083850312156102fe578081fd5b82356103098161033b565b946020939093013593505050565b6000821982111561033657634e487b7160e01b81526011600452602481fd5b500190565b6001600160a01b038116811461035057600080fd5b5056fea2646970667358221220488ebcd6d2f6703f0f3e867898142f1f195052b29c6b6d1bfb2ef2cf65fb5e7964736f6c63430008040033","opcodes":"PUSH1 0x80 PUSH1 0x40 MSTORE CALLVALUE DUP1 ISZERO PUSH2 0x10 JUMPI PUSH1 0x0 DUP1 REVERT JUMPDEST POP PUSH2 0x389 DUP1 PUSH2 0x20 PUSH1 0x0 CODECOPY PUSH1 0x0 RETURN INVALID PUSH1 0x80 PUSH1 0x40 MSTORE PUSH1 0x4 CALLDATASIZE LT PUSH2 0x4E JUMPI PUSH1 0x0 CALLDATALOAD PUSH1 0xE0 SHR DUP1 PUSH4 0x522E1177 EQ PUSH2 0xC6 JUMPI DUP1 PUSH4 0x8B8AFCD7 EQ PUSH2 0xD0 JUMPI DUP1 PUSH4 0x9D9A7FE9 EQ PUSH2 0xF0 JUMPI DUP1 PUSH4 0xA3C2C462 EQ PUSH2 0x11F JUMPI DUP1 PUSH4 0xF8B2CB4F EQ PUSH2 0x143 JUMPI PUSH1 0x0 DUP1 REVERT JUMPDEST CALLDATASIZE PUSH2 0xC1 JUMPI CALLVALUE SELFBALANCE LT ISZERO PUSH2 0xA8 JUMPI PUSH1 0x40 MLOAD PUSH3 0x461BCD PUSH1 0xE5 SHL DUP2 MSTORE PUSH1 0x20 PUSH1 0x4 DUP3 ADD MSTORE PUSH1 0x1F PUSH1 0x24 DUP3 ADD MSTORE PUSH32 0xE8B4A6E688B7E4BD99E9A29DE4B88DE8B6B32CE697A0E6B395E694AFE4BB9800 PUSH1 0x44 DUP3 ADD MSTORE PUSH1 0x64 ADD JUMPDEST PUSH1 0x40 MLOAD DUP1 SWAP2 SUB SWAP1 REVERT JUMPDEST CALLVALUE PUSH1 0x1 PUSH1 0x0 DUP3 DUP3 SLOAD PUSH2 0xBA SWAP2 SWAP1 PUSH2 0x317 JUMP JUMPDEST SWAP1 SWAP2 SSTORE POP POP STOP JUMPDEST PUSH1 0x0 DUP1 REVERT JUMPDEST PUSH2 0xCE PUSH2 0x16B JUMP JUMPDEST STOP JUMPDEST CALLVALUE DUP1 ISZERO PUSH2 0xDC JUMPI PUSH1 0x0 DUP1 REVERT JUMPDEST POP PUSH2 0xCE PUSH2 0xEB CALLDATASIZE PUSH1 0x4 PUSH2 0x2EC JUMP JUMPDEST PUSH2 0x1C6 JUMP JUMPDEST CALLVALUE DUP1 ISZERO PUSH2 0xFC JUMPI PUSH1 0x0 DUP1 REVERT JUMPDEST POP PUSH1 0x0 SLOAD PUSH2 0x10A SWAP1 PUSH1 0xFF AND DUP2 JUMP JUMPDEST PUSH1 0x40 MLOAD SWAP1 ISZERO ISZERO DUP2 MSTORE PUSH1 0x20 ADD JUMPDEST PUSH1 0x40 MLOAD DUP1 SWAP2 SUB SWAP1 RETURN JUMPDEST CALLVALUE DUP1 ISZERO PUSH2 0x12B JUMPI PUSH1 0x0 DUP1 REVERT JUMPDEST POP PUSH2 0x135 PUSH1 0x1 SLOAD DUP2 JUMP JUMPDEST PUSH1 0x40 MLOAD SWAP1 DUP2 MSTORE PUSH1 0x20 ADD PUSH2 0x116 JUMP JUMPDEST CALLVALUE DUP1 ISZERO PUSH2 0x14F JUMPI PUSH1 0x0 DUP1 REVERT JUMPDEST POP PUSH2 0x135 PUSH2 0x15E CALLDATASIZE PUSH1 0x4 PUSH2 0x2C9 JUMP JUMPDEST PUSH1 0x1 PUSH1 0x1 PUSH1 0xA0 SHL SUB AND BALANCE SWAP1 JUMP JUMPDEST PUSH1 0x0 DUP1 SLOAD PUSH1 0xFF NOT AND PUSH1 0x1 SWAP1 DUP2 OR DUP3 SSTORE DUP1 SLOAD CALLVALUE SWAP3 SWAP1 PUSH2 0x18A SWAP1 DUP5 SWAP1 PUSH2 0x317 JUMP JUMPDEST SWAP1 SWAP2 SSTORE POP POP PUSH1 0x40 MLOAD CALLVALUE DUP2 MSTORE CALLER SWAP1 PUSH32 0xDE2DEAD40A8C097B51964AEC2A068FFA7DC41C6A98FF2C2B4A6E72957C32AC76 SWAP1 PUSH1 0x20 ADD PUSH1 0x40 MLOAD DUP1 SWAP2 SUB SWAP1 LOG2 JUMP JUMPDEST DUP1 SELFBALANCE LT ISZERO PUSH2 0x221 JUMPI PUSH1 0x40 MLOAD PUSH3 0x461BCD PUSH1 0xE5 SHL DUP2 MSTORE PUSH1 0x20 PUSH1 0x4 DUP3 ADD MSTORE PUSH1 0x22 PUSH1 0x24 DUP3 ADD MSTORE PUSH32 0xE5A596E58AB1E6B1A0E4BD99E9A29DE4B88DE8B6B32CE697A0E6B395E694AFE4 PUSH1 0x44 DUP3 ADD MSTORE PUSH2 0x1773 PUSH1 0xF3 SHL PUSH1 0x64 DUP3 ADD MSTORE PUSH1 0x84 ADD PUSH2 0x9F JUMP JUMPDEST PUSH1 0x0 DUP3 PUSH1 0x1 PUSH1 0x1 PUSH1 0xA0 SHL SUB AND DUP3 PUSH1 0x40 MLOAD PUSH1 0x0 PUSH1 0x40 MLOAD DUP1 DUP4 SUB DUP2 DUP6 DUP8 GAS CALL SWAP3 POP POP POP RETURNDATASIZE DUP1 PUSH1 0x0 DUP2 EQ PUSH2 0x26E JUMPI PUSH1 0x40 MLOAD SWAP2 POP PUSH1 0x1F NOT PUSH1 0x3F RETURNDATASIZE ADD AND DUP3 ADD PUSH1 0x40 MSTORE RETURNDATASIZE DUP3 MSTORE RETURNDATASIZE PUSH1 0x0 PUSH1 0x20 DUP5 ADD RETURNDATACOPY PUSH2 0x273 JUMP JUMPDEST PUSH1 0x60 SWAP2 POP JUMPDEST POP POP SWAP1 POP DUP1 PUSH2 0x2C4 JUMPI PUSH1 0x40 MLOAD PUSH3 0x461BCD PUSH1 0xE5 SHL DUP2 MSTORE PUSH1 0x20 PUSH1 0x4 DUP3 ADD MSTORE PUSH1 0x1E PUSH1 0x24 DUP3 ADD MSTORE PUSH32 0xE5B086E5A596E58AB1E8BDACE7A7BBE7BB99E794A8E688B7E5A4B1E8B4A50000 PUSH1 0x44 DUP3 ADD MSTORE PUSH1 0x64 ADD PUSH2 0x9F JUMP JUMPDEST POP POP POP JUMP JUMPDEST PUSH1 0x0 PUSH1 0x20 DUP3 DUP5 SUB SLT ISZERO PUSH2 0x2DA JUMPI DUP1 DUP2 REVERT JUMPDEST DUP2 CALLDATALOAD PUSH2 0x2E5 DUP2 PUSH2 0x33B JUMP JUMPDEST SWAP4 SWAP3 POP POP POP JUMP JUMPDEST PUSH1 0x0 DUP1 PUSH1 0x40 DUP4 DUP6 SUB SLT ISZERO PUSH2 0x2FE JUMPI DUP1 DUP2 REVERT JUMPDEST DUP3 CALLDATALOAD PUSH2 0x309 DUP2 PUSH2 0x33B JUMP JUMPDEST SWAP5 PUSH1 0x20 SWAP4 SWAP1 SWAP4 ADD CALLDATALOAD SWAP4 POP POP POP JUMP JUMPDEST PUSH1 0x0 DUP3 NOT DUP3 GT ISZERO PUSH2 0x336 JUMPI PUSH4 0x4E487B71 PUSH1 0xE0 SHL DUP2 MSTORE PUSH1 0x11 PUSH1 0x4 MSTORE PUSH1 0x24 DUP2 REVERT JUMPDEST POP ADD SWAP1 JUMP JUMPDEST PUSH1 0x1 PUSH1 0x1 PUSH1 0xA0 SHL SUB DUP2 AND DUP2 EQ PUSH2 0x350 JUMPI PUSH1 0x0 DUP1 REVERT JUMPDEST POP JUMP INVALID LOG2 PUSH5 0x6970667358 0x22 SLT KECCAK256 0x48 DUP15 0xBC 0xD6 0xD2 0xF6 PUSH17 0x3F0F3E867898142F1F195052B29C6B6D1B 0xFB 0x2E CALLCODE 0xCF PUSH6 0xFB5E7964736F PUSH13 0x63430008040033000000000000 "},"gasEstimates":{"creation":{"codeDepositCost":"181000","executionCost":"226","totalCost":"181226"},"external":{"complete()":"43258","completed()":"1021","getBalance(address)":"1128","payReward(address,uint256)":"infinite","totalReceived()":"1039"}},"methodIdentifiers":{"complete()":"522e1177","completed()":"9d9a7fe9","getBalance(address)":"f8b2cb4f","payReward(address,uint256)":"8b8afcd7","totalReceived()":"a3c2c462"}},"storageLayout":{"storage":[{"astId":1043,"contract":"contracts/ExampleExternalContract.sol:ExampleExternalContract","label":"completed","offset":0,"slot":"0","type":"t_bool"},{"astId":1045,"contract":"contracts/ExampleExternalContract.sol:ExampleExternalContract","label":"totalReceived","offset":0,"slot":"1","type":"t_uint256"}],"types":{"t_bool":{"encoding":"inplace","label":"bool","numberOfBytes":"1"},"t_uint256":{"encoding":"inplace","label":"uint256","numberOfBytes":"32"}}},"userdoc":{"kind":"user","methods":{"complete()":{"notice":"完成质押操作的函数，只能被调用一次"},"getBalance(address)":{"notice":"用于获取合约的ETH余额"},"payReward(address,uint256)":{"notice":"将奖励转移给用户"}},"version":1}}}}