{
  "_format": "hh-sol-artifact-1",
  "contractName": "Staker",
  "sourceName": "contracts/Staker.sol",
  "abi": [
    {
      "inputs": [
        {
          "internalType": "address payable",
          "name": "exampleExternalContractAddress",
          "type": "address"
        }
      ],
      "stateMutability": "nonpayable",
      "type": "constructor"
    },
    {
      "anonymous": false,
      "inputs": [
        {
          "indexed": true,
          "internalType": "address",
          "name": "user",
          "type": "address"
        },
        {
          "indexed": false,
          "internalType": "uint256",
          "name": "amount",
          "type": "uint256"
        }
      ],
      "name": "Reward",
      "type": "event"
    },
    {
      "anonymous": false,
      "inputs": [
        {
          "indexed": true,
          "internalType": "address",
          "name": "sender",
          "type": "address"
        },
        {
          "indexed": false,
          "internalType": "uint256",
          "name": "amount",
          "type": "uint256"
        }
      ],
      "name": "Stake",
      "type": "event"
    },
    {
      "anonymous": false,
      "inputs": [
        {
          "indexed": true,
          "internalType": "address",
          "name": "user",
          "type": "address"
        },
        {
          "indexed": false,
          "internalType": "uint256",
          "name": "amount",
          "type": "uint256"
        }
      ],
      "name": "Withdraw",
      "type": "event"
    },
    {
      "inputs": [
        {
          "internalType": "address",
          "name": "",
          "type": "address"
        }
      ],
      "name": "balances",
      "outputs": [
        {
          "internalType": "uint256",
          "name": "",
          "type": "uint256"
        }
      ],
      "stateMutability": "view",
      "type": "function"
    },
    {
      "inputs": [],
      "name": "deadline",
      "outputs": [
        {
          "internalType": "uint256",
          "name": "",
          "type": "uint256"
        }
      ],
      "stateMutability": "view",
      "type": "function"
    },
    {
      "inputs": [],
      "name": "exampleExternalContract",
      "outputs": [
        {
          "internalType": "contract ExampleExternalContract",
          "name": "",
          "type": "address"
        }
      ],
      "stateMutability": "view",
      "type": "function"
    },
    {
      "inputs": [],
      "name": "execute",
      "outputs": [],
      "stateMutability": "nonpayable",
      "type": "function"
    },
    {
      "inputs": [],
      "name": "stake",
      "outputs": [],
      "stateMutability": "payable",
      "type": "function"
    },
    {
      "inputs": [
        {
          "internalType": "address",
          "name": "",
          "type": "address"
        }
      ],
      "name": "stakedAt",
      "outputs": [
        {
          "internalType": "uint256",
          "name": "",
          "type": "uint256"
        }
      ],
      "stateMutability": "view",
      "type": "function"
    },
    {
      "inputs": [],
      "name": "threshold",
      "outputs": [
        {
          "internalType": "uint256",
          "name": "",
          "type": "uint256"
        }
      ],
      "stateMutability": "view",
      "type": "function"
    },
    {
      "inputs": [],
      "name": "timeLeft",
      "outputs": [
        {
          "internalType": "uint256",
          "name": "timeleft",
          "type": "uint256"
        }
      ],
      "stateMutability": "view",
      "type": "function"
    },
    {
      "inputs": [],
      "name": "withdraw",
      "outputs": [],
      "stateMutability": "nonpayable",
      "type": "function"
    },
    {
      "inputs": [
        {
          "internalType": "uint256",
          "name": "amount",
          "type": "uint256"
        }
      ],
      "name": "withdrawReward",
      "outputs": [],
      "stateMutability": "nonpayable",
      "type": "function"
    },
    {
      "stateMutability": "payable",
      "type": "receive"
    }
  ],
  "bytecode": "0x608060405261001042610bb8610091565b60025534801561001f57600080fd5b50604051610ce7380380610ce783398101604081905261003e91610063565b600080546001600160a01b0319166001600160a01b03929092169190911790556100b5565b600060208284031215610074578081fd5b81516001600160a01b038116811461008a578182fd5b9392505050565b600082198211156100b057634e487b7160e01b81526011600452602481fd5b500190565b610c23806100c46000396000f3fe6080604052600436106100955760003560e01c806342cde4e81161005957806342cde4e814610131578063523a3f081461014d578063614619541461016d5780639f75f22714610182578063ef36bbde146101ba57600080fd5b80631300a6d1146100a957806327e235e3146100d157806329dcb0cf146100fe5780633a4b66f1146101145780633ccfd60b1461011c57600080fd5b366100a4576100a26101e7565b005b600080fd5b3480156100b557600080fd5b506100be610420565b6040519081526020015b60405180910390f35b3480156100dd57600080fd5b506100be6100ec366004610aa3565b60016020526000908152604090205481565b34801561010a57600080fd5b506100be60025481565b6100a26101e7565b34801561012857600080fd5b506100a2610444565b34801561013d57600080fd5b506100be670de0b6b3a764000081565b34801561015957600080fd5b506100a2610168366004610af1565b6106d7565b34801561017957600080fd5b506100a2610853565b34801561018e57600080fd5b506000546101a2906001600160a01b031681565b6040516001600160a01b0390911681526020016100c8565b3480156101c657600080fd5b506100be6101d5366004610aa3565b60036020526000908152604090205481565b6000806101f2610420565b905081156102265780156102215760405162461bcd60e51b815260040161021890610b42565b60405180910390fd5b610246565b600081116102465760405162461bcd60e51b815260040161021890610b79565b60008060009054906101000a90046001600160a01b03166001600160a01b0316639d9a7fe96040518163ffffffff1660e01b815260040160206040518083038186803b15801561029557600080fd5b505afa1580156102a9573d6000803e3d6000fd5b505050506040513d601f19601f820116820180604052508101906102cd9190610ad1565b905080156103155760405162461bcd60e51b81526020600482015260156024820152740e8b4a8e68abce8bf87e7a88be5b7b2e5ae8ce6889605c1b6044820152606401610218565b600034116103655760405162461bcd60e51b815260206004820152601a60248201527fe8b4a8e68abce98791e9a29de5bf85e9a1bbe5a4a7e4ba8e20300000000000006044820152606401610218565b344710156103b55760405162461bcd60e51b815260206004820152601f60248201527fe8b4a6e688b7e4bd99e9a29de4b88de8b6b32ce697a0e6b395e694afe4bb98006044820152606401610218565b3360009081526003602090815260408083204290556001909152812080543492906103e1908490610ba8565b909155505060405134815233907febedb8b3c678666e7f36970bc8f57abf6d8fa2e828c0da91ea5b75bf68ed101a9060200160405180910390a2505050565b600060025442106104315750600090565b4260025461043f9190610bc0565b905090565b60016000610450610420565b9050811561047b5780156104765760405162461bcd60e51b815260040161021890610b42565b61049b565b6000811161049b5760405162461bcd60e51b815260040161021890610b79565b33600090815260016020526040902054806104f85760405162461bcd60e51b815260206004820152601b60248201527fe682a8e6b2a1e69c89e58fafe68f90e58f96e79a84e4bd99e9a29d00000000006044820152606401610218565b60008054906101000a90046001600160a01b03166001600160a01b0316639d9a7fe96040518163ffffffff1660e01b815260040160206040518083038186803b15801561054457600080fd5b505afa158015610558573d6000803e3d6000fd5b505050506040513d601f19601f8201168201806040525081019061057c9190610ad1565b156105dc5760405162461bcd60e51b815260206004820152602a60248201527fe5a496e983a8e59088e7baa6e5b7b2e5ae8ce68890efbc8ce697a0e6b395e68f60448201526990e58f96e4bd99e9a29d60b01b6064820152608401610218565b33600081815260016020908152604080832083905560039091528082208290555190919083908381818185875af1925050503d806000811461063a576040519150601f19603f3d011682016040523d82523d6000602084013e61063f565b606091505b505090508061069c5760405162461bcd60e51b8152602060048201526024808201527fe5b086e794a8e688b7e4bd99e9a29de8bf94e8bf98e7bb99e794a8e688b7e5a4604482015263b1e8b4a560e01b6064820152608401610218565b60405182815233907f884edad9ce6fa2440d8a54cc123490eb96d2768479d49ff9c7366125a94243649060200160405180910390a250505050565b60008054906101000a90046001600160a01b03166001600160a01b0316639d9a7fe96040518163ffffffff1660e01b815260040160206040518083038186803b15801561072357600080fd5b505afa158015610737573d6000803e3d6000fd5b505050506040513d601f19601f8201168201806040525081019061075b9190610ad1565b6107b75760405162461bcd60e51b815260206004820152602760248201527fe6b2a1e69c89e689a7e8a18ce8b4a8e68abcefbc8ce697a0e6b395e68f90e58f60448201526696e5a596e58ab160c81b6064820152608401610218565b600054604051638b8afcd760e01b8152336004820152602481018390526001600160a01b0390911690638b8afcd790604401600060405180830381600087803b15801561080357600080fd5b505af1158015610817573d6000803e3d6000fd5b50506040518381523392507f619caafabdd75649b302ba8419e48cccf64f37f1983ac4727cfb38b57703ffc9915060200160405180910390a250565b60008060009054906101000a90046001600160a01b03166001600160a01b0316639d9a7fe96040518163ffffffff1660e01b815260040160206040518083038186803b1580156108a257600080fd5b505afa1580156108b6573d6000803e3d6000fd5b505050506040513d601f19601f820116820180604052508101906108da9190610ad1565b905080156109225760405162461bcd60e51b81526020600482015260156024820152740e8b4a8e68abce8bf87e7a88be5b7b2e5ae8ce6889605c1b6044820152606401610218565b6001600061092e610420565b905081156109595780156109545760405162461bcd60e51b815260040161021890610b42565b610979565b600081116109795760405162461bcd60e51b815260040161021890610b79565b47670de0b6b3a76400008110156109c45760405162461bcd60e51b815260206004820152600f60248201526e39a72aba2fafb9622c3a662239602f608a1b6044820152606401610218565b6000805460408051600481526024810182526020810180516001600160e01b031663522e117760e01b17905290516001600160a01b03909216918491610a0991610b09565b60006040518083038185875af1925050503d8060008114610a46576040519150601f19603f3d011682016040523d82523d6000602084013e610a4b565b606091505b5050905080610a9c5760405162461bcd60e51b815260206004820152601860248201527fe8b083e794a8e5a496e983a8e59088e7baa6e5a4b1e8b4a500000000000000006044820152606401610218565b5050505050565b600060208284031215610ab4578081fd5b81356001600160a01b0381168114610aca578182fd5b9392505050565b600060208284031215610ae2578081fd5b81518015158114610aca578182fd5b600060208284031215610b02578081fd5b5035919050565b60008251815b81811015610b295760208186018101518583015201610b0f565b81811115610b375782828501525b509190910192915050565b60208082526018908201527fe688aae6ada2e697a5e69c9fe5b09ae69caae588b0e8bebe0000000000000000604082015260600190565b6020808252601590820152747344557356d1734bd2f34e4ff2dbd972c458745f5f60591b604082015260600190565b60008219821115610bbb57610bbb610bd7565b500190565b600082821015610bd257610bd2610bd7565b500390565b634e487b7160e01b600052601160045260246000fdfea26469706673582212205565c6465b00ee6b44adf9676a5d4dde305342c987f53697e27b8018c799b39464736f6c63430008040033",
  "linkReferences": {},
  "deployedLinkReferences": {}
}