{
  "_format": "hh-sol-artifact-1",
  "contractName": "ExampleExternalContract",
  "sourceName": "contracts/ExampleExternalContract.sol",
  "abi": [
    {
      "anonymous": false,
      "inputs": [
        {
          "indexed": true,
          "internalType": "address",
          "name": "sender",
          "type": "address"
        },
        {
          "indexed": false,
          "internalType": "uint256",
          "name": "amount",
          "type": "uint256"
        }
      ],
      "name": "Completed",
      "type": "event"
    },
    {
      "inputs": [],
      "name": "complete",
      "outputs": [],
      "stateMutability": "payable",
      "type": "function"
    },
    {
      "inputs": [],
      "name": "completed",
      "outputs": [
        {
          "internalType": "bool",
          "name": "",
          "type": "bool"
        }
      ],
      "stateMutability": "view",
      "type": "function"
    },
    {
      "inputs": [
        {
          "internalType": "address",
          "name": "contractAddress",
          "type": "address"
        }
      ],
      "name": "getBalance",
      "outputs": [
        {
          "internalType": "uint256",
          "name": "",
          "type": "uint256"
        }
      ],
      "stateMutability": "view",
      "type": "function"
    },
    {
      "inputs": [
        {
          "internalType": "address payable",
          "name": "user",
          "type": "address"
        },
        {
          "internalType": "uint256",
          "name": "amount",
          "type": "uint256"
        }
      ],
      "name": "payReward",
      "outputs": [],
      "stateMutability": "nonpayable",
      "type": "function"
    },
    {
      "inputs": [],
      "name": "totalReceived",
      "outputs": [
        {
          "internalType": "uint256",
          "name": "",
          "type": "uint256"
        }
      ],
      "stateMutability": "view",
      "type": "function"
    },
    {
      "stateMutability": "payable",
      "type": "receive"
    }
  ],
  "bytecode": "0x608060405234801561001057600080fd5b50610389806100206000396000f3fe60806040526004361061004e5760003560e01c8063522e1177146100c65780638b8afcd7146100d05780639d9a7fe9146100f0578063a3c2c4621461011f578063f8b2cb4f1461014357600080fd5b366100c157344710156100a85760405162461bcd60e51b815260206004820152601f60248201527fe8b4a6e688b7e4bd99e9a29de4b88de8b6b32ce697a0e6b395e694afe4bb980060448201526064015b60405180910390fd5b34600160008282546100ba9190610317565b9091555050005b600080fd5b6100ce61016b565b005b3480156100dc57600080fd5b506100ce6100eb3660046102ec565b6101c6565b3480156100fc57600080fd5b5060005461010a9060ff1681565b60405190151581526020015b60405180910390f35b34801561012b57600080fd5b5061013560015481565b604051908152602001610116565b34801561014f57600080fd5b5061013561015e3660046102c9565b6001600160a01b03163190565b6000805460ff191660019081178255805434929061018a908490610317565b909155505060405134815233907fde2dead40a8c097b51964aec2a068ffa7dc41c6a98ff2c2b4a6e72957c32ac769060200160405180910390a2565b804710156102215760405162461bcd60e51b815260206004820152602260248201527fe5a596e58ab1e6b1a0e4bd99e9a29de4b88de8b6b32ce697a0e6b395e694afe4604482015261177360f31b606482015260840161009f565b6000826001600160a01b03168260405160006040518083038185875af1925050503d806000811461026e576040519150601f19603f3d011682016040523d82523d6000602084013e610273565b606091505b50509050806102c45760405162461bcd60e51b815260206004820152601e60248201527fe5b086e5a596e58ab1e8bdace7a7bbe7bb99e794a8e688b7e5a4b1e8b4a50000604482015260640161009f565b505050565b6000602082840312156102da578081fd5b81356102e58161033b565b9392505050565b600080604083850312156102fe578081fd5b82356103098161033b565b946020939093013593505050565b6000821982111561033657634e487b7160e01b81526011600452602481fd5b500190565b6001600160a01b038116811461035057600080fd5b5056fea2646970667358221220488ebcd6d2f6703f0f3e867898142f1f195052b29c6b6d1bfb2ef2cf65fb5e7964736f6c63430008040033",
  "linkReferences": {},
  "deployedLinkReferences": {}
}